:100000000C943E000C9448000C9448000C9448005A
:100010000C9448000C9448000C9448000C94480040
:100020000C9448000C9448000C9448000C94480030
:100030000C9448000C9448000C9448000C94480020
:100040000C9448000C9448000C9448000C94480010
:100050000C9448000C9448000C9448000C94480000
:100060000C9448000C9448005200550058005B0066
:100070005E006100640067006A006D0011241FBE0D
:10008000CFEFD8E0DEBFCDBF0E9470000C94F70028
:100090000C9400008A30910510F5FC01EC5CFF4FD8
:1000A0000C94DD008FE385B9089586E085B9089545
:1000B0008BE585B908958FE485B9089586E685B9FD
:1000C00008958DE685B908958DE785B9089587E08F
:1000D00085B908958FE785B908958FE685B90895A4
:1000E0008FEF87B984B9C0E0D0E081E088B9CE0154
:1000F00068EE73E00E94C900CB010AE010E0B8018D
:100100000E94C9000E944A002FE788E391E0215035
:1001100080409040E1F700C0000082E088B9CE0145
:1001200064E670E00E94C900CB01B8010E94C900DA
:100130000E944A002FE788E391E0215080409040E0
:10014000E1F700C0000084E088B9CE01B8010E9448
:10015000C9007C01CB01B8010E94C9000E944A007D
:100160002FE788E391E0215080409040E1F700C004
:10017000000088E088B9C7010E944A002FE788E3A1
:1001800091E0215080409040E1F700C000002196AE
:10019000ACCF97FB072E16F4009407D077FD09D05B
:1001A0000E94E30007FC05D03EF4909581959F4F97
:1001B0000895709561957F4F0895EE0FFF1F05908C
:1001C000F491E02D0994AA1BBB1B51E107C0AA1FA3
:1001D000BB1FA617B70710F0A61BB70B881F991FE8
:1001E0005A95A9F780959095BC01CD010895F89492
:0201F000FFCF3F
:00000001FF
