S01100005450315F656A6572342E7372656305
S11300000C943E000C9450000C9450000C9450003E
S11300100C9450000C9450000C9450000C9450001C
S11300200C9450000C9450000C9450000C9450000C
S11300300C9450000C9450000C9450000C945000FC
S11300400C9450000C9450000C9450000C945000EC
S11300500C9450000C9450000C9450000C945000DC
S11300600C9450000C9450005A005D006000630032
S1130070660069006C006F007200750011241FBED9
S1130080CFEFD8E0DEBFCDBF21E0A0E0B1E001C0FA
S11300901D92A630B207E1F70E94C3000C945A01E6
S11300A00C9400008A30910510F5FC01EC5CFF4FC4
S11300B00C9440018FE385B9089586E085B90895CD
S11300C08BE585B908958FE485B9089586E685B9E9
S11300D008958DE685B908958DE785B9089587E07B
S11300E085B908958FE785B908958FE685B9089590
S11300F0FC01862F39B129B1227099B1947030FF77
S11301000EC040910401509105014F5F5F4F509321
S11301100501409304014330510539F405C01092A0
S113012005011092040101C081E0222371F02091A5
S11301300201309103012F5F3F4F3093030120935D
S113014002012330310539F405C0109203011092E5
S1130150020101C080E0992389F0209100013091CF
S113016001012F5F3F4F30930101209300012330A1
S1130170310541F41182108280E00895109201014A
S1130180109200010895CF93DF9300D0CDB7DEB76E
S113019088EF8AB98FEF87B984B91A821982F12C52
S11301A081E088B989819A8168EE73E00E942C010C
S11301B0CB010AE010E0B8010E942C010E94520019
S11301C08FE097E20197F1F700C0000082E088B960
S11301D089819A8164E670E00E942C01CB01B80108
S11301E00E942C010E9452008FE097E20197F1F7E0
S11301F000C0000084E088B989819A81B8010E9416
S11302002C01CB01B8010E942C010E9452008FE006
S113021097E20197F1F700C0000088E088B989816E
S11302209A81B8010E942C010E9452008FE097E24B
S11302300197F1F700C000006F2D70E0CE01019628
S11302400E947800F82E882309F4AACF89819A8124
S113025001969A838983A4CF97FB072E16F4009402
S113026007D077FD09D00E94460107FC05D03EF473
S1130270909581959F4F0895709561957F4F08954E
S1130280EE0FFF1F0590F491E02D0994AA1BBB1BF0
S113029051E107C0AA1FBB1FA617B70710F0A61B82
S11302A0B70B881F991F5A95A9F780959095BC01A3
S10B02B0CD010895F894FFCF7D
S9030000FC
