S01100005450315F656A6572322E7372656307
S11300000C943E000C9448000C9448000C94480056
S11300100C9448000C9448000C9448000C9448003C
S11300200C9448000C9448000C9448000C9448002C
S11300300C9448000C9448000C9448000C9448001C
S11300400C9448000C9448000C9448000C9448000C
S11300500C9448000C9448000C9448000C944800FC
S11300600C9448000C9448006C006F0072007500FA
S113007078007B007E0081008400870011241FBE6D
S1130080CFEFD8E0DEBFCDBF0E944A000C949000B1
S11300900C94000017B88FEF84B920E0309B12C095
S11300A08FE39CE90197F1F700C000002F5F2A302D
S11300B009F420E015B88FE39CE90197F1F700C03B
S11300C00000ECCF822F90E08A30910538F7FC01D4
S11300D0EC5CFF4F0C948A008FE385B9DFCF86E098
S11300E085B9DCCF8BE585B9D9CF8FE485B9D6CF77
S11300F086E685B9D3CF8DE685B9D0CF8DE785B9AE
S1130100CDCF87E085B9CACF8FE785B9C7CF8FE652
S113011085B9C4CFEE0FFF1F0590F491E02D09942B
S1070120F894FFCF7D
S9030000FC
